:020000041000EA
:1000000000B5324B212058609868022188439860DF
:10001000D860186158612E4B002199600221596106
:100020000121F02299502B49196001219960352056
:1000300000F044F80222904214D00621196600F024
:1000400034F8196E01211966002018661A6600F04E
:100050002CF8196E196E196E052000F02FF8012189
:100060000842F9D1002199601B49196000215960AB
:100070001A491B48016001219960EB211966A021F2
:10008000196600F012F800219960164914480160C1
:100090000121996001BC002800D000471248134993
:1000A000086003C880F30888084703B5996A0420EC
:1000B0000142FBD001200142F8D103BD02B5186610
:1000C0001866FFF7F2FF186E186E02BD00000240BE
:1000D000000000180000070000035F00212200005C
:1000E000F4000018222000A00001001008ED00E03C
:1000F00000000000000000000000000074B24E7A12
:1001000000200420F7010010C3010010C5010010F9
:10011000C1010010C1010010C1010010C101001097
:10012000C1010010C1010010C1010010C701001081
:10013000C1010010C1010010C9010010CB01001065
:10014000CD010010CD010010CD010010CD01001037
:10015000CD010010CD010010CD010010CD01001027
:10016000CD010010CD010010CD010010CD01001017
:10017000CD010010CD010010CD010010CD01001007
:10018000CD010010CD010010CD010010CD010010F7
:10019000CD010010CD010010CD010010CD010010E7
:1001A000CD010010CD010010CD010010CD010010D7
:1001B000CD010010CD010010CD010010CD010010C7
:1001C00000BE00BE00BE00BE00BE00BE00F04BF888
:1001D000103800BEF2EB8871B49D0110D89D01105B
:1001E0003402001090A31AE700202149086006C8D5
:1001F00081F3088810471F48006800282FD10DA4FC
:100200000ECC002902D000F012F8F9E71A491B4A77
:10021000002000E001C19142FCD1194988471949E9
:1002200088471949884700BEFDE701C901C29A42C3
:10023000FBD37047D89D0110C00000205C10002047
:1002400080AD0110000004200000042080AD0110EA
:1002500000100420001004200000000070470B482C
:1002600006F0FCFA0047EFF30580C0B270470000CB
:1002700008ED00E0000000D06810002054230020AA
:100280004D5100102D0F001009510010575600005D
:1002900006005250ABB36053608B01100600525001
:1002A000861C0302708B0110060052505422A29D3E
:1002B000788B011005005250DE65F46880AD0110A6
:1002C000F8B5C04610B5064C2378002B07D1054B76
:1002D000002B02D0044800E000BF0123237010BDB2
:1002E0007011002000000000780D0110044B10B5C3
:1002F000002B03D00349044800E000BF10BDC046F6
:100300000000000074110020780D011010B5036882
:10031000002B1BD1104B1B68002B18D10F4B002258
:100320001A600F4C0D4B1B680E4A12689342F5DAA7
:100330005A00D3189B000A4AD3189B68200098479C
:10034000064A1368013313600C34EBE79F46002321
:100350000360032010BDC046E81F0020301C0020B1
:10036000F41F0020EC1F002010B50368002B1BD1E8
:10037000104B1B68002B18D10F4B00221A600F4C3A
:100380000D4B1B680E4A12689342F5DA5A00D318D7
:100390009B000A4AD3189B6820009847064A1368B6
:1003A000013313600C34EBE79F4600230360032006
:1003B00010BDC046E81F0020341C00206C20002027
:1003C000F01F002070B55B4B1B68002B02DD013B6A
:1003D000584A1360584B1B68002B02DD013B564AFC
:1003E0001360564B1B68002B06D0554B1B68002B27
:1003F00031DD013B524A1360524B1B68002B02DD7A
:10040000013B504A1360504B1B68002B02DD013B3F
:100410004D4A13604D4B1B68002B02DD013B4B4ADC
:1004200013604B4B1B68002B02DD013B484A1360F5
:10043000484B1B68002B02DD013B464A1360464BCC
:100440001B68002B02DD013B434A13603B4B1B68DA
:10045000002B07D070BD414B1B681B041B0C404A8E
:100460001360C9E73F4B404A1A60404B1D682800A3
:1004700008F010F9041C3E493E4B186808F0D3F808
:10048000011C201C08F000F9002804D00135374B6E
:100490001D600120DEE7354B00221A60364B1B68D9
:1004A000002B2DD1344B01321A60324B334A1A6083
:1004B000334B00221A60334B1B689B00324A995819
:1004C000324808F09AF808F007F980B2304B5862C9
:1004D0002B4B186808F000F983B2204A106843409B
:1004E0001B041B0C1E4A1360234B1B68002BD0D12E
:1004F000244B1B68232B19D00133224A1360C8E711
:100500001D4B00221A601F4B1B689B00214A995803
:10051000184A11601C4A98581F4908F084F8011CB9
:100520001A4808F06AF8164B1860C4E7154B002209
:100530001A60AEE7A4110020981100206804002082
:10054000A0110020A8110020AC1100208C11002067
:1005500090110020941100209C11002020000540E3
:100560002010054098050020A4707D3FA0170020B2
:1005700000A08C446C04002094050020CDCCCC3D20
:1005800034230020381C0020040500200024744976
:100590000000054070040020FD4A813F10B582B084
:1005A0000AE06B46D9791C4C200002F0F7FC2000D1
:1005B00002F00CFD002814D1184B9B6910210A0091
:1005C0001A40194225D16B46D91D002AE9D1134B97
:1005D0009B69DB06FBD4114B1B680B7001320131A8
:1005E000F3E70D4C200002F00DFD200002F044FD69
:1005F000E36B002B09D1084BD86C08F075F80200AA
:100600000B00074808F0CAFAD6E7034802F076FD67
:10061000F1E702B010BDC046441C0020008003403A
:10062000780D011070B50400BD4B1B68002B01D183
:10063000092826D0BB4B1B68002B19D1BA4A126877
:10064000002A01D10A2C4CD0B84A1268002A01D1E4
:100650000B2C67D0B64A1268002A02D10C2C00D1AC
:1006600081E0B44A1268002A02D10D2C00D19BE02F
:10067000013300D1B9E0AB4B1B68022B00D1D8E1AC
:1006800070BDA74BC8221A60AB4808F055FA012389
:10069000AA4A1360AA4A1360AA4A1360AA4A1360BE
:1006A000AA4A1360AA4A1360AA4B1B681B041B0CBE
:1006B000A94A13609B4B1B68002B0DD0A74BA84A7F
:1006C0005A62A44B1A68A74B53401B041B0CA24A46
:1006D0001360A54B64221A60924B012252421A60A9
:1006E000A8E7934A1268002A09DD904909688A42FE
:1006F00005DD9E49C82292000420885008E08B4AFC
:100700001268002A08DD9949C82292000720885003
:10071000854AC821116097E79449C82292000020B9
:100720008850F5E7804A1268002A09DD8149096886
:100730008A4205DD8D49C82292000720885008E0D2
:100740007C4A1268002A08DD8849C82292000620E7
:100750008850764AC82111607CE78449C8229200FB
:1007600003208850F5E7704A1268002A09DD7149B4
:1007700009688A4205DD7D49C8229200042088501C
:1007800008E06C4A1268002A08DD7849C822920005
:1007900005208850664AC821116062E77349C82263
:1007A000920001208850F5E7604A1268002A09DDAE
:1007B0005F4909688A4205DD6C49C822920006201B
:1007C000885008E05A4A1268002A08DD6749C822A2
:1007D000920005208850574AC821116048E76349B4
:1007E000C822920002208850F5E7614B1B68002B5D
:1007F00001D1082C3ED04C4B1B68002B01D10A2C98
:100800006BD04A4B1B68002B02D10B2C00D1BFE0F0
:10081000474B1B68002B02D10C2C00D1DFE0454B6D
:100820001B68002B00D026E70D2C00D023E7514891
:1008300008F082F9504B1B68002B02D14F4A02216D
:100840001160012B00D1F0E0364B1B68002B0DD05E
:10085000424B434A5A623F4B1A68424B53401B0477
:100860001B0C3D4A1360404B64221A60314BC82276
:100870001A6000E7404D2968414808F08FF93C4B69
:10088000C8221A602B68002B02D1264A0021116071
:10089000012B16D0022B18D0032B1AD0214B1B682A
:1008A000002BA8D02D4B2E4A5A622A4B1A682D4B8A
:1008B00053401B041B0C284A13602B4B64221A6004
:1008C00099E7184A01211160E4E7164A02211160F4
:1008D000E2E7144B03221A60E0E72A4808F02CF9FB
:1008E000254B1B68022B17D0032B4DD00D4B1B68DB
:1008F000002B0DD0194B1A4A5A62164B1A68194B25
:1009000053401B041B0C144A1360174B64221A60DB
:10091000054BC8221A6074E7184A00211160E3E70A
:10092000AC110020680400208C11002090110020E0
:10093000941100209C110020840D0110000500205E
:100940005004002054040020580400205C040020BF
:1009500060040020200005402010054000000540F4
:10096000EE0E0000C70E0000A0110020981C002011
:10097000A8110020E40D0110A41700201418002075
:100980009C0D0110C00D0110A74B01221A60ADE7AC
:10099000A64808F0D1F8A64B1B68012B17D0032BF3
:1009A00019D0A44B1B68002B0DD0A34BA34A5A624D
:1009B000A34B1A68A34B53401B041B0CA24A1360A1
:1009C000A24B64221A60A24BC8221A6020E7964A02
:1009D00000211160E3E7944B02221A60E1E79D4891
:1009E00008F0AAF8924B1B68002B02D18E4A012115
:1009F0001160022B15D08F4B1B68002B0DD08E4B36
:100A00008E4A5A628E4B1A688E4B53401B041B0C45
:100A10008D4A13608D4B64221A608F4BC8221A6076
:100A2000FDE6814B03221A60E5E77F4B03221A6043
:100A30000AE78A4B1A688A4B19688A4808F0AEF8A8
:100A4000894B1B68002B01D1082C3ED0874B1B68BB
:100A5000002B01D10A2C6FD07D4B1B68002B02D1DB
:100A60000B2C00D18FE07C4B1B68002B02D10C2C8F
:100A700000D1AFE07E4B1B68002B00D000E60D2CB0
:100A800000D0FDE57B4808F057F8754B1B68002B3C
:100A900002D1724A02211160012B00D1C0E0654BE6
:100AA0001B68002B0DD0644B644A5A62644B1A6871
:100AB000644B53401B041B0C634A1360634B64225A
:100AC0001A606B4BC8221A60DAE5674BC8221A60BD
:100AD000634B1B68002B1AD0614B1B68012B1ED087
:100AE000022B21D0032B23D0524B1B68002BADD0FF
:100AF000514B524A5A62524B1A68524B53401B0494
:100B00001B0C514A1360514B64221A609EE75A48ED
:100B100008F012F8594BFA2252001A60DCE7574AE3
:100B2000962149001160DBE7544AC8211160D9E7DA
:100B3000524B64221A60D7E7514807F0FDFF484B3B
:100B40001B68022B17D0032B19D03A4B1B68002BC4
:100B50000DD0394B394A5A62394B1A68394B5340D8
:100B60001B041B0C384A1360384B64221A603F4B3D
:100B7000C8221A6070E7394A00211160E3E7374B59
:100B800001221A60E1E7294807F0D6FF344B1B68C1
:100B9000012B17D0032B19D0264B1B68002B0DD02F
:100BA000254B264A5A62264B1A68264B53401B0493
:100BB0001B0C254A1360254B64221A60244BC82263
:100BC0001A6050E7254A00211160E3E7234B022217
:100BD0001A60E1E71F4807F0AFFF214B1B68002BAD
:100BE00002D11E4A01211160022B15D0114B1B6846
:100BF000002B0DD0104B114A5A62114B1A68114B41
:100C000053401B041B0C104A1360104B64221A60E3
:100C1000114BC8221A602DE7104B03221A60E5E73A
:100C20000E4B03221A603AE714180020CC0D011075
:100C3000A41700206804002000000540EE0E00000C
:100C400020000540C70E000020100540A011002024
:100C500090110020D80D01109411002018180020C8
:100C6000A8170020F00D0110A81100208C11002001
:100C70009C110020E40D0110180E011064040020E6
:100C8000C00D011010B504000368002B07D10F4BF5
:100C90001B68032B04D000232360032010BD9F4654
:100CA0000B4B1B68002B07D10A4BDB6B002BF2D0E0
:100CB000084802F073FAEEE7002001F0B1FA01F003
:100CC000CDFD034B00221A60EEE7C0466804002009
:100CD00060040020441C002070B504000368002B51
:100CE00007D1144B1B68022B04D000232360032080
:100CF00070BD9F46104B1B68002B0FD10F4B1A681D
:100D00000F4B1B689A42F0D001F0BCFD0B4D2868D8
:100D100001F0FBFD2A680A4B1A60E6E7002001F0AB
:100D20007FFA01F04DFD002001F0EFFD024B0022A3
:100D30001A60E3E7680400205C0400201818002013
:100D4000A817002010B504000368002B07D1114B31
:100D50001B68012B04D000232360032010BD9F4695
:100D60000D4B1B68002B0BD10C4B1B68002BF2D1D9
:100D70000B4802F057FA094BFA2252001A60EAE7D0
:100D8000002001F04DFA02F0B5F8034B00221A6082
:100D9000EAE7C046680400205804002098110020AB
:100DA000441C002070B504000368002B0FD1214BB8
:100DB0001B68002B31D1204B1B68002B08D11F4B27
:100DC0001B68002B14D000232360032070BD9F46B6
:100DD000002001F025FA02F08DF8194D280001F0ED
:100DE00039FF280001F006FE134B00221A60E6E7E7
:100DF000134D280001F00CFE280001F045FF0028EB
:100E000003D10C4B022252421A600D4801F0F2FD50
:100E10000C4B1A68094B1A60D5E70233D3D10A4B41
:100E20001B68002BCFD0064802F074F8064B002256
:100E30001A60C8E76804002050040020A4110020B4
:100E4000981C0020640400205404002070B50400A5
:100E50000368002B07D1154B1B68013304D0002316
:100E60002360032070BD9F46114B1B68002B0FD1E0
:100E7000104B1A68104B1B689A42F0D001F002FD2B
:100E80000C4D286801F041FD2A680B4B1A60E6E71B
:100E9000002001F0C5F901F047FC002001F035FD0C
:100EA0000023054A1360024A1360E1E7680400204A
:100EB0000005002014180020A417002010B503001E
:100EC0000A4A1068092801DD002010BD084C4200C4
:100ED00011188900611848608B6012189200002375
:100EE0001351431C014A1360EFE7C046EC1F00207A
:100EF000F41F002010B503000A4A1068092801DD1C
:100F0000002010BD084C420011188900611848608B
:100F10008B601218920000231351431C014A136086
:100F2000EFE7C046F01F00206C20002030B58BB0EA
:100F300007F040FE0421022002F0C4F9744BFA22AB
:100F4000D2009A61734A5A62734B1B681B041B0CD4
:100F5000724A1360724B1A6801239343714A1360FB
:100F60009621714C0901200004F070F8022115202F
:100F700002F0A8F996218901200004F025F8226BDF
:100F8000C0231B021A4080256D01684B2B431A6059
:100F9000E26A602353406E221A40654B2B431A606D
:100FA0006449152002F0A8FB0121152002F07AFB0C
:100FB0005023A363636B38221A405F4B2B431A60A4
:100FC00000F0DEF800F03CFA082002F05BFAD024D2
:100FD000240680235B00A362092002F053FA8023D9
:100FE0009B00A3620A2002F04DFA8023DB00A3627B
:100FF0000B2002F047FA80231B01A3620C2002F0B1
:1010000041FAA5620D2002F03DFA80239B01A36204
:101010004A4D2B0001220821082002F0D7F92B00AD
:1010200001220821092002F0D1F92B000122082118
:101030000A2002F0CBF92B00012208210B2002F03C
:10104000C5F92B00012208210C2002F0BFF92B006A
:10105000012208210D2002F0B9F903F07BF904AB5D
:10106000029300230193364B0093364A01235B42DF
:1010700003F0B6FA2368012B2FD03348FFF71EFF89
:10108000D0231B061B68012B2BD03048FFF716FF1F
:10109000D0231B061B68012B27D02D48FFF70EFF1E
:1010A000D0231B061B68012B23D02A48FFF706FF1D
:1010B000D0231B061B68012B1FD02748FFF7FEFE1D
:1010C000D0231B061B68012B1BD024480023036080
:1010D000FFF71CF900200BB030BD1B48FFF70AFFDB
:1010E000CEE71A48FFF706FFD2E71948FFF702FFDD
:1010F000D6E71848FFF7FEFEDAE71748FFF7FAFED3
:10110000DEE7174800230360FFF72EF9E2E7C04649
:1011100000000540EE0E00002000054020100540B4
:101120001400054014100540008003403080034047
:101130002C8003409D0500103480034025060010DC
:10114000C503001018FCFFFF4D0E0010A50D001088
:10115000450D0010D90C0010850C0010E01F002078
:10116000E41F0020044A80239B01134301221A60DC
:10117000024B00221A707047300020509C0500205E
:10118000F0B5CE46474680B58BB0614BF0221A8051
:10119000604B50321A80122002F074F9D0242406D9
:1011A0008023DB02994663626361142002F06AF9CE
:1011B000802676036662102002F064F980235B02C9
:1011C00098466362544D554928680AF0D5FB0700DC
:1011D000534B18602C686D681022002106A807F098
:1011E00093FB43460693F8235B0207934B46089311
:1011F000C0231B030893102206A902A807F08AFB4C
:101200007A1D039B0193474B01990B40F9010B4356
:10121000120313430393059A0192D200D20880214E
:1012200089050A430592404A13400393102202A9FC
:1012300006A807F06FFB099B01933C4B019A1340F2
:10124000132213431E430996394B1E408823DB01AA
:101250001E430996089B0193364A1A40364B1343A6
:10126000089343460693A026360333000022290044
:1012700020000AF09DFB33003200290020000AF014
:10128000CDFB2E4B9C4241D007263100132002F0AB
:1012900019F83100112002F015F80021112002F098
:1012A00029F806AB3A00290020000AF0EFFB6B009A
:1012B0005B19DB00E318D833214A1A60214A1A600F
:1012C000226801200300AB409A4313432360124974
:1012D0000B68303380229201134318600B682D3362
:1012E000FF331A4380235B0013601749063002F076
:1012F00003FA0121072002F0D5F9FA20400003F09B
:1013000067FA0BB0C0BCB946B046F0BD0626BCE7D4
:101310003A23002038230020A005002020130110CC
:10132000CC1F00207F00FEFFFFFFFF9FE0FF0FFCB0
:10133000FF83FFFFFFFFF5C10000021000002050F7
:1013400026E0000046E000006511001000B583B003
:101350006B46D91D0870012202480FF005FD03B04D
:1013600000BDC046A005002010B582B00400030AED
:101370006A46D11D0B70012208480FF0F5FC084B9E
:101380001B78002BFBD1064B01221A706B46D91D2E
:101390000C7002480FF0E8FC02B010BDA005002060
:1013A0009C05002010B5D0231B06802252029A61B2
:1013B0008022D2029A61FFF7C9FF064B1B78002BEF
:1013C000FBD1044B01221A70D0231B068022D202CB
:1013D0005A6110BD9C05002010B5D0231B06802249
:1013E00052025A618022D2029A61FFF7AFFF064B88
:1013F0001B78002BFBD1044B01221A70D0231B0653
:101400008022D2025A6110BD9C05002010B5D02365
:101410001B06802252025A618022D2029A61FFF793
:10142000A3FF064B1B78002BFBD1044B01221A7043
:10143000D0231B068022D2025A6110BD9C050020D9
:1014400070B5FA267600300003F0C2F9D0242406E5
:1014500080256D03A56180235B02A3618023DB02ED
:1014600063616561052003F0B3F9A561142003F001
:10147000AFF96561962003F0ABF9EF20FFF792FF1B
:101480000320FFF7A9FF8020FFF7A6FF0220FFF748
:10149000A3FFCF20FFF786FF0020FFF79DFFC120AD
:1014A000FFF79AFF3020FFF797FFED20FFF77AFF55
:1014B0006420FFF791FF0320FFF78EFF1220FFF754
:1014C0008BFF8120FFF788FFE820FFF76BFF852067
:1014D000FFF782FF0020FFF77FFF7820FFF77CFFF8
:1014E000CB20FFF75FFF3920FFF776FF2C20FFF7B7
:1014F00073FF0020FFF770FF3420FFF76DFF02201D
:10150000FFF76AFFF720FFF74DFF2020FFF764FF8A
:10151000EA20FFF747FF0020FFF75EFF0020FFF7FC
:101520005BFFC020FFF73EFF2320FFF755FFC120E0
:10153000FFF738FF1020FFF74FFFC520FFF732FFFE
:101540003E20FFF749FF2820FFF746FFC720FFF79F
:1015500029FF8620FFF740FF3620FFF723FF4820B2
:10156000FFF73AFF3A20FFF71DFF5520FFF734FF42
:10157000B120FFF717FF0020FFF72EFF1820FFF71D
:101580002BFFB620FFF70EFF0820FFF725FF822074
:10159000FFF722FF2720FFF71FFFF220FFF702FFD0
:1015A0000020FFF719FF2620FFF7FCFE0120FFF7C0
:1015B00013FFE020FFF7F6FE0F20FFF70DFF3120AD
:1015C000FFF70AFF2B20FFF707FF0C20FFF704FFB0
:1015D0000E20FFF701FF0820FFF7FEFE4E20FFF769
:1015E000FBFEF120FFF7F8FE3720FFF7F5FE07209E
:1015F000FFF7F2FE1020FFF7EFFE0320FFF7ECFEEF
:101600000E20FFF7E9FE0920FFF7E6FE0020FFF7B6
:10161000E3FEE120FFF7C6FE0020FFF7DDFE0E200F
:10162000FFF7DAFE1420FFF7D7FE0320FFF7D4FE02
:101630001120FFF7D1FE0720FFF7CEFE3120FFF784
:10164000CBFEC120FFF7C8FE4820FFF7C5FE0820EB
:10165000FFF7C2FE0F20FFF7BFFE0C20FFF7BCFE16
:101660003120FFF7B9FE3620FFF7B6FE0F20FFF757
:10167000B3FE1120FFF796FE782003F0A9F8292089
:10168000FFF790FE300003F0A3F870BD70B50400C2
:101690000D001600002809DB054B1B88984205DA6F
:1016A000002903DB034B1B88994205DB70BDC04654
:1016B0003A23002038230020D0231B068022520228
:1016C0009A618022D2029A612A20FFF73FFEC0462B
:1016D000C046C046C046C046C046C046C046C046DA
:1016E000C046C046C046C046C046C046C046C046CA
:1016F000C046C046C046C046C046C046C046C046BA
:10170000C046C046C046C046C046C046C046C046A9
:10171000C046C046C046C046C046C046C046C04699
:10172000C046C046C046C046C046C046C046C04689
:10173000C046C046C046C046C046C046C046C04679
:10174000C046C046C046C046C046C046C046874B9D
:101750001B78002BFBD1854B01221A70D0231B066E
:101760008022D2025A618021490259619A61A4B251
:101770002000FFF7F9FDC046C046C046C046C0463F
:10178000C046C046C046C046C046C046C046C04629
:10179000C046C046C046C046C046C046C046C04619
:1017A000C046C046C046C046C046C046C046C04609
:1017B000C046C046C046C046C046C046C046C046F9
:1017C000C046C046C046C046C046C046C046C046E9
:1017D000C046C046C046C046C046C046C046C046D9
:1017E000C046C046C046C046C046C046C046C046C9
:1017F000C046C046C046C046C046C046C046C046B9
:10180000C046C046C046C046C046C046C046C046A8
:10181000C046C046C046C046C046C046C046C04698
:10182000C046C046C046C046C046C046C046C04688
:10183000C046C046C046C046C046C046C046C04678
:10184000C046C046C046C046C046C046C046C04668
:10185000C046C046C046C046C046C046C046C04658
:10186000C046C046C046C046C046C046C046C04648
:10187000C046C046C046C046C046C046C046C04638
:10188000C046C046C046C046C046C046C046C04628
:10189000C046C046C046C046C046C046C046C04618
:1018A000C046C046C046C046C046C046C046C04608
:1018B000C046C046C0462D4B1B78002BFBD12B4B9E
:1018C00001221A70D0231B068022D2025A619A612B
:1018D0000134A0B2FFF748FDC046C046C046C0462E
:1018E000C046C046C046C046C046C046C046C046C8
:1018F000C046C046C046C046C046C046C046C046B8
:10190000C046C046C046C046C046C046C046C046A7
:10191000C046C046C046C046C046C046C046C04697
:10192000C046C046C046C046C046C046C046C04687
:10193000C046C046C046C046C046C046C046C04677
:10194000C046C046C046C046C046C046C046C04667
:10195000C046C046C046C046C046C046C046C04657
:10196000C046C046C046C046C04601E09C050020B7
:10197000C046C046C046C046C046C046C046C04637
:10198000C046C046C046C046C046C046C046C04627
:10199000C046C046C046C046C046C046C046C04617
:1019A000C046C046C046C046C046C046C046C04607
:1019B000C046C046C046C046C046C046C046C046F7
:1019C000C046C046C046C046C046C046C046C046E7
:1019D000C046C046C046C046C046C046C046C046D7
:1019E000C046C046C046C046C046C046C046C046C7
:1019F000C046C046C046C046C046C046C046C046B7
:101A0000C046C046C046C046C046C046C046C046A6
:101A1000C046C046C046C046C046C046C046884BC9
:101A20001B78002BFBD1864B01221A70D0231B069A
:101A30008022D2025A618021490299619A612B2049
:101A4000FFF784FCC046C046C046C046C046C046FC
:101A5000C046C046C046C046C046C046C046C04656
:101A6000C046C046C046C046C046C046C046C04646
:101A7000C046C046C046C046C046C046C046C04636
:101A8000C046C046C046C046C046C046C046C04626
:101A9000C046C046C046C046C046C046C046C04616
:101AA000C046C046C046C046C046C046C046C04606
:101AB000C046C046C046C046C046C046C046C046F6
:101AC000C046C046C046C046C046C046C046C046E6
:101AD000C046C046C046C046C046C046C046C046D6
:101AE000C046C046C046C046C046C046C046C046C6
:101AF000C046C046C046C046C046C046C046C046B6
:101B0000C046C0464E4B1B78002BFBD14C4B0122EC
:101B10001A70D0231B068022D2025A61802149020A
:101B200059619A61ADB22800FFF71EFCC046C0465D
:101B3000C046C046C046C046C046C046C046C04675
:101B4000C046C046C046C046C046C046C046C04665
:101B5000C046C046C046C046C046C046C046C04655
:101B6000C046C046C046C046C046C046C046C04645
:101B7000C046C046C046C046C046C046C046C04635
:101B8000C046C046C046C046C046C046C046C04625
:101B9000C046C046C046C046C046C046C046C04615
:101BA000C046C046C046C046C046C046C046C04605
:101BB000C046C046C046C046C046C046C046C046F5
:101BC000C046C046C046C046C046C046C046C046E5
:101BD000C046C046C046C046C046C046C046C046D5
:101BE000C046C046C046C046C046C046C046C046C5
:101BF000C046C046C046C046C046C046C046C046B5
:101C0000C046C046C046C046C046C046C046C046A4
:101C1000C046C046C046C046C046C046C046C04694
:101C2000C046C046C046C046C046C046C046C04684
:101C3000C046C046C046C046C046C04602E0C04698
:101C40009C050020C046C046C046C046C046C046AF
:101C5000C046C046C046C046C046C046C046C04654
:101C6000C046C046C046C046C046C046C046C04644
:101C7000C046C046874B1B78002BFBD1854B012209
:101C80001A70D0231B068022D2025A619A61013554
:101C9000A8B2FFF769FBC046C046C046C046C04672
:101CA000C046C046C046C046C046C046C046C04604
:101CB000C046C046C046C046C046C046C046C046F4
:101CC000C046C046C046C046C046C046C046C046E4
:101CD000C046C046C046C046C046C046C046C046D4
:101CE000C046C046C046C046C046C046C046C046C4
:101CF000C046C046C046C046C046C046C046C046B4
:101D0000C046C046C046C046C046C046C046C046A3
:101D1000C046C046C046C046C046C046C046C04693
:101D2000C046C046C046C046C046C046C046C04683
:101D3000C046C046C046C046C046C046C046C04673
:101D4000C046C046C046C046C046C046C046C04663
:101D5000C046C046C046C046C046C046C046C04653
:101D6000C046C046C046C046C046C046C046C04643
:101D7000C046C046C046C046C046C046C046C04633
:101D8000C046C046C046C046C046C046C046C04623
:101D9000C046C046C046C046C046C046C046C04613
:101DA000C046C046C046C046C046C046C046C04603
:101DB000C046C046C046C046C046C046C046C046F3
:101DC000C046C046C046C046C046C046C046C046E3
:101DD000C046C046C0462F4B1B78002BFBD12D4B75
:101DE00001221A70D0231B068022D2025A61802160
:101DF000490299619A612C20FFF7A8FAC046C046B3
:101E0000C046C046C046C046C046C046C046C046A2
:101E1000C046C046C046C046C046C046C046C04692
:101E2000C046C046C046C046C046C046C046C04682
:101E3000C046C046C046C046C046C046C046C04672
:101E4000C046C046C046C046C046C046C046C04662
:101E5000C046C046C046C046C046C046C046C04652
:101E6000C046C046C046C046C046C046C046C04642
:101E7000C046C046C046C046C046C046C046C04632
:101E8000C046C046C046C046C046C046C046C04622
:101E900002E0C0469C050020C046C046C046C04681
:101EA000C046C046C046C046C046C046C046C04602
:101EB000C046C046C046C046C046C046C046C046F2
:101EC000C046C046604B1B78002BFBD15E4B012205
:101ED0001A70D0231B068022D2025A618021490247
:101EE00059619A613000FFF73FFAC046C046C046CC
:101EF000C046C046C046C046C046C046C046C046B2
:101F0000C046C046C046C046C046C046C046C046A1
:101F1000C046C046C046C046C046C046C046C04691
:101F2000C046C046C046C046C046C046C046C04681
:101F3000C046C046C046C046C046C046C046C04671
:101F4000C046C046C046C046C046C046C046C04661
:101F5000C046C046C046C046C046C046C046C04651
:101F6000C046C046C046C046C046C046C046C04641
:101F7000C046C046C046C046C046C046C046C04631
:101F8000C046C046C046C046C046C046C046C04621
:101F9000C046C046C046C046C046C046C046C04611
:101FA000C046C046C046C046C046C046C046C04601
:101FB000C046C046C046C046C046C046C046C046F1
:101FC000C046C046C046C046C046C046C046C046E1
:101FD000C046C046C046C046C046C046C046C046D1
:101FE000C046C046C046C046C046C046C046C046C1
:101FF000C046C046C046C046C046C046C046C046B1
:10200000C046C046C046C046C046C046C046C046A0
:10201000C046C046C046C046C046C046C046C04690
:10202000C046C046C046C046C046074B1B78002B82
:10203000FBD1054B01221A70D0231B068022D2024D
:102040005A61FFF733FBC0469C050020F8B5070036
:102050000D0016001C002A20FFF7A4F93800FFF736
:10206000D5F93000FFF7D2F92B20FFF79BF92800B4
:10207000FFF7CCF92000FFF7C9F92C20FFF792F900
:10208000F8BD000070B514001E001A4B1B88984262
:102090002EDA194B1B8899422ADA6518AB4201DA0D
:1020A0005B1A1CB280B289B20B199BB2013B9BB286
:1020B0000200FFF7CBFFD0231B06802252025A6199
:1020C0008022D2029A610AE03000FFF74DF90B4AF4
:1020D0001278002AFBD1094A012111702C00651EDB
:1020E0002DB2002CF0D1D0231B068022D2025A61DF
:1020F00070BDC0463A230020382300209C050020F4
:1021000070B514001E001A4B1B8898422EDA194D28
:102110002D88A9422ADA2518AB4201DA1B1A1CB213
:1021200080B289B2021992B2013A92B20B00FFF763
:102130008DFFD0231B06802252025A618022D202D8
:102140009A610AE03000FFF70FF90B4A1278002A73
:10215000FBD1094A012111702C00651E2DB2002C03
:10216000F0D1D0231B068022D2025A6170BDC04636
:102170003A230020382300209C050020F0B583B0CE
:1021800015001F0008AB1E88224B1B880093984245
:102190003DDA214A12880192914238DA2C18A34282
:1021A00001DA1B1A1DB27B18019C9C4201DA571AF6
:1021B0003FB280B289B2421992B2CB199BB2013BB5
:1021C0009BB2013A92B2FFF741FFD0231B06802257
:1021D00052025A618022D2029A610FE03000FFF76A
:1021E000C3F80E4909780029FBD10C4A012313706A
:1021F000013C24B2002CF1DC013F3FB2002F01DD95
:102200002C00F7E7D0231B068022D2025A6103B0CC
:10221000F0BDC0463A230020382300209C05002052
:1022200000B583B0064B00229B5E064A0021525E39
:10223000009000210020FFF7A1FF03B000BDC046C1
:10224000382300203A230020F0B5DE4657464E469C
:102250004546E0B589B0049005911600019312AB94
:1022600000229B5E069313AB1B880293B2B201243B
:10227000A41A24B2D3039B1A5B001BB2039300255C
:1022800001231F00B04618E04346013B1BB29846AD
:10229000039A023293B212B203921C1924B201358E
:1022A000AEB22DB20237BBB23FB21C1924B2019BB1
:1022B000DB0707D4019B9B072ED4454557DA002C3A
:1022C000E2DAECE76B461B8A9B46F0186B46998A6C
:1022D00043469BB29A4607910B005146591A534602
:1022E0005A0092B26B461B8B99464A44013212B295
:1022F00009B200B2029BFFF7C5FE58465044079A48
:10230000911B720092B24A44013212B209B200B279
:10231000029BFFF7B7FECDE76B461B8A9B46981BD7
:102320006B46998A43469BB29A4607910B005146E9
:10233000591A53465A0092B26B461B8B99464A442F
:10234000013212B209B200B2029BFFF79BFE59465E
:102350005046081A079A911B7600B6B24E440136D1
:1023600032B209B200B2029BFFF78CFEA5E709B0BA
:10237000F0BCBB46B246A946A046F0BDF0B585B05C
:1023800006000F001D0003926B469C89091B640028
:10239000A2B2013212B209B22B00FFF773FE01950F
:1023A000002300930333039A39003000FFF74CFFFA
:1023B00005B0F0BDF0B5C64600B504000D0090466E
:1023C0001E0006AB1F883B00FFF79AFEA91989B2D1
:1023D000013909B23B0042462000FFF791FE3B0065
:1023E000320029002000FFF74DFE4444A0B201381E
:1023F00000B23B0032002900FFF744FE80BCB84623
:10240000F0BD0000F0B5D6464F464646C0B59046F2
:102410001E0008AB00229B5E9A4609AB1B889946BA
:10242000354B1C88A04262DA344A15882A00A9423A
:102430005DDA3718BC4201DA241A26B253465B181B
:102440009A4202DA6D1A2BB29A46F31DDA17072761
:102450001740FF18FF103FB280B289B2821992B2C2
:102460005346CB189BB2013B9BB2013A92B2FFF7A5
:10247000EDFDD0231B06802252025A618022D20237
:102480009A6100252AE00020FEF76EFF1C4B1978A8
:102490000029FBD101221A70013422B296421BDDC1
:1024A000D11707230B409B18DB1039006943CB1869
:1024B0004146C95C94B207231A40793313410B4259
:1024C000E1D04846FEF750FF0D4B1B78002BFBD1A7
:1024D0000B4B01221A70DFE701352DB2AA4501DD51
:1024E0000022DBE7D0231B068022D2025A61E0BC27
:1024F000BA46B146A846F0BD3A2300203823002052
:102500009C050020F0B5DE4657464E464546E0B5F0
:1025100085B081468A46039298460EAB1B889B463F
:102520000FAB1E78364B1B88984262DA354B1B88FE
:1025300099425EDA73009B195B004B44002B58DD17
:10254000F3005344002B54DD002743E04046484449
:102550005346E11809B200B23A00FFF797F811E0CC
:10256000BB450FD0012E24D0404670434844310073
:102570006143514432B209B200B25B46009313008A
:10258000FFF7FCFD6D080134E4B2072C1DD8EB0702
:10259000E6D5012EDAD0404670434844310061430D
:1025A000514432B209B200B200971300FFF7E6FDC2
:1025B000E8E7404648445346E11809B200B25A469B
:1025C000FFF764F8DEE700250EE03B00474698463B
:1025D0000137FFB2052F0CD8F5D0039A930094462B
:1025E0006344FB18084AD55C00244346B8461F00E4
:1025F000CBE705B0F0BCBB46B246A946A046F0BD4D
:102600003A23002038230020200E011070B582B03C
:1026100002000A280ED00D2816D0092816D1224B08
:102620001B881A1D2149098891420DDD13001E4A9D
:10263000138009E01E4A1F4B1B88DB0011885B18C2
:102640001380194B00221A8002B070BD1A4B1B88F0
:1026500017490020095E144C0025605F154D2E7847
:102660000196164E36880096FFF74CFF2A885300D5
:10267000D3185B0021885B189BB22380104909881E
:102680000029E1D09100511A4900084800884118FA
:102690008B42D9DD064BD200198852181A80024BA2
:1026A00000221A80D0E7C0463C2300203A230020B5
:1026B0003E2300204423002042230020402300200A
:1026C0004623002010B5040002E00134FFF79EFF0E
:1026D00020780028F9D110BD024B1880024B1980D8
:1026E0007047C0463C2300203E230020002803D032
:1026F00080B2024B188070470120FAE74423002083
:10270000024B1880024B18807047C04640230020BF
:1027100042230020024B1880024B19807047C046AC
:10272000422300204023002030B583B01F4C00948A
:10273000A023782200210020FFF73CFE019496257B
:1027400000956E231A4A05210520FFF75BFE0094D1
:10275000A023782200217820FFF72CFE0194009519
:102760006E23144A05217D20FFF74CFE0094A02320
:102770007822A0210020FFF71DFE019400956E2312
:102780000D4AA5210520FFF73DFE0094A0237822E5
:10279000A0217820FFF70EFE019400956E23074AD2
:1027A000A5217D20FFF72EFE03B030BDFFFF000006
:1027B00020720110B8610110EC6901105051011034
:1027C00070B582B0204E0096A02378220021002010
:1027D000FFF7F0FDFC25ED000195962400946E2393
:1027E0001A4A05210520FFF70DFE0096A023782246
:1027F00000217820FFF7DEFD019500946E23144A36
:1028000005217D20FFF7FEFD0096A0237822A02160
:102810000020FFF7CFFD019500946E230D4AA521FE
:102820000520FFF7EFFD0096A0237822A021782055
:10283000FFF7C0FD019500946E23074AA5217D2076
:10284000FFF7E0FD02B070BDFFFF00003413011080
:10285000681B0110845901109C23011000B583B03E
:10286000064B0193A0235B000093503B044A0021D8
:102870000020FFF7C7FD03B000BDC046FFFF00000A
:10288000D02B0110F0B5D6464F464646C0B582B0B3
:10289000012732E03BB29A463C24E41B640024B298
:1028A0005025ED1B6D002DB20023994600932B009F
:1028B000220051465046FFF77DFDBEB2330078330B
:1028C0001BB298464B4600932B00220051464046CF
:1028D000FFF770FDA03636B24B4600932B00220066
:1028E00031005046FFF766FD4B4600932B00220057
:1028F00031004046FFF75EFD0137042FCADD02B00C
:10290000E0BCBA46B146A846F0BD30B583B004007D
:10291000022845D017DC00282CD0012828D1042C0F
:1029200026DC200078303C22121B50231B1B5B004E
:102930001BB2520012B221B200B21F250095FFF760
:1029400039FD0134EBE7032812D101243DE020B228
:102950003C22121B50231B1B5B001BB2520012B205
:102960001F2100910100FFF725FD0134042CEEDD4D
:1029700003B030BD0124F9E72100A0313C22121B35
:1029800050231B1B5B001BB2520012B209B220B2D3
:102990001F250095FFF70EFD0134042CECDDE7E761
:1029A0000124FAE7A1B208007830A0313C22121BC2
:1029B00050231B1B5B001BB2520012B209B200B2C3
:1029C0001F250095FFF7F6FC0134042CEADDCFE764
:1029D00010B504000022002006E0054B1968012311
:1029E0000B40400018430132A242F6DB10BDC04646
:1029F0001C00064010B5C8235B00C15E0023C05E0A
:102A0000024B0522FFF7BAFC10BDC046FFFF0000D5
:102A100010B5C9239B00C3585A1E920063339B0014
:102A2000C15E805E00230522FFF7A8FC10BD0000F8
:102A3000F0B583B007000139EE293DD8002A3EDD0C
:102A4000A0235B009A423CDA0126C9239B00FB5875
:102A5000B3422DDDB300D8593B68181A00248025F5
:102A6000ED0504F03BFA22002B0004F061FE00901B
:102A70000191C8235B00F858330064339B00DB5995
:102A8000C01A04F02BFA22002B0004F051FE0200C1
:102A90000B000098019904F081F904F0ABFA04F0FE
:102AA0009DFA0B4905F0F0FD00280CD10136CCE76A
:102AB000632B0ADC002000E0012003B0F0BD012000
:102AC000FBE70120F9E70120F7E70120F5E7C04621
:102AD0000000A04070B582B00600CA239B00C05819
:102AE0003368181A00248025ED0504F0F7F9220058
:102AF0002B0004F01DFE00900191C8235B00F058EC
:102B00009D33FF33F358C01A04F0E8F922002B007C
:102B100004F00EFE02000B000098019904F03EF94B
:102B200004F068FA04F05AFA044905F0ADFD0028F3
:102B300002D0012002B070BD0020FBE70000204160
:102B400010B504000720FFF743FF6430CA239B0041
:102B5000E0500820FFF73CFF3230CB239B00E050D1
:102B600010BD000010B5CB239B00C15ECA239B00A3
:102B7000C05E024B0222FFF701FC10BDE0FF000027
:102B8000F0B5C64600B582B006000027002398467F
:102B900000E00137C9239B00F358BB4244DDBB0072
:102BA0009859CA239B00F358C01A00248025ED05CC
:102BB00004F094F922002B0004F0BAFD009001917A
:102BC0003B0064339B009859CB239B00F358C01AF9
:102BD00004F084F922002B0004F0AAFD02000B008F
:102BE0000098019904F0DAF804F004FA04F0F6F918
:102BF000164905F049FD0028CBD0CB239B00F15EA0
:102C0000CA239B00F05E00230222FFF7B7FBBB0044
:102C10003A0064329200B15EF05E0D4B0522FFF780
:102C2000ADFB01239846B4E74346002B03D002B026
:102C300080BCB846F0BDCB239B00F15ECA239B004D
:102C4000F05E00230222FFF799FBF0E70000A040AE
:102C5000FFFF000010B5C9239B000322C250043BB4
:102C60000022C250782303609132FF32A0218150AC
:102C7000436004320A31815083602133FF33E03AEC
:102C8000C250FFF75DFF10BDF8B5DE4657464E4611
:102C90004546E0B500AF0400C9239B00C3589B0024
:102CA0000733DB08DB006A46D21A9546E846D31A9A
:102CB0009D46EB46C8239B00C358072B0FD89B00AB
:102CC000814AD3589F4603689A46C8235B00C05880
:102CD0009B3BFF3B994681447C4805F05FFF4A4699
:102CE00051462000FFF7A4FE051E00D197E000200A
:102CF000BD46F0BCBB46B246A946A046F8BD036837
:102D00000A22944663449A46C8235B00C3589946F6
:102D10006F4805F043FFE2E703689A46C8235B006B
:102D2000C058873BFF3B994681446A4805F036FF0F
:102D3000D5E703680A225242944663449A46C82360
:102D40005B00C3589946644805F028FFC7E7006850
:102D500004F0C4F8614A624B04F020F804F0D6F89D
:102D60008246C8235B00E05804F0B8F85B4A5C4B2D
:102D700004F00BF804F0CAF881465A4805F00EFF3B
:102D8000ADE7006804F0AAF8544A554B04F006F881
:102D900004F0BCF88246C8235B00E05804F09EF8BB
:102DA0004E4A4F4B03F0FAFF04F0B0F881464E480C
:102DB00005F0F4FE93E7006804F090F8474A484BAA
:102DC00003F0E3FF04F0A2F88246C8235B00E0585A
:102DD00004F084F8414A424B03F0E0FF04F096F817
:102DE0008146424805F0DAFE79E7006804F076F89B
:102DF0003A4A3B4B03F0C9FF04F088F88246C823E7
:102E00005B00E05804F06AF8344A354B03F0BDFF2C
:102E100004F07CF88146364805F0C0FE5FE72000EC
:102E2000FFF758FE031E2CD02000FFF7A9FE2B0051
:102E30000BE05A1C990008599100464688516433AA
:102E40009B001B5958460B501300C9229200A258F0
:102E50009342EEDB0132C9239B00E2502000FFF7D2
:102E60006FFE2000FFF77EFE14E05A1C99000859FF
:102E700091004646885164339B001B5958460B50BD
:102E80001300C9229200A258013A9342EDDB2000C0
:102E9000FFF768FE434652461A604B465A46136097
:102EA0000AE0AB0042469A581A515A469A582B00EB
:102EB00064339B001A510135C9239B00E3589D429E
:102EC000EFDB012014E7C0469C7A0110547A011010
:102ED000587A0110607A0110687A0110BF0A1F0049
:102EE000C6481C40707A01107C7A0110887A011063
:102EF000947A011000B583B0A023054A00925B00CC
:102F0000F02200210020FFF755FA03B000BDC046B3
:102F1000FFFF000010B586B004001C4B0093DC23BB
:102F20008C2232213220FFF729F946213C20FFF77D
:102F3000D3FB0020FFF7E4FB0820FFF7D7FB144882
:102F4000FFF7C0FB96213C20FFF7C6FB0020FFF7F0
:102F5000D7FB0220FFF7CAFB0E48FFF7B3FBC821DF
:102F60006920FFF7B9FBF8200002FFF7C9FB052035
:102F7000FFF7BCFBC9239B00E258074903A803F0F5
:102F80003BFC03A8FFF79EFB06B010BDFFFF00004F
:102F9000BC7A0110C07A0110D07A011030B58FB020
:102FA000002304E05A1C855C01ACE5541300302B6F
:102FB000F8DD01AA3123D154002303E001AAD25C39
:102FC000C2540133312BF9DD0FB030BD10B5037899
:102FD00042788178C4780079472B09D14E2A09D1EB
:102FE000522909D14D2C09D1432809D0002000E0F5
:102FF000002010BD0020FCE70020FAE70020F8E7E1
:103000000120F6E770B5040000230EE09A1DA15CD4
:10301000154AD1541A000832A15C144AD1541A003E
:103020000A32A15C124AD1540133012BEEDD220099
:103030004032104D29000C4809F076FA2200443243
:1030400029000A4809F070FA22004832290008488D
:1030500009F06AFA236C042B02DC1333236470BD7D
:10306000053B2364FBE7C0462C180020401C0020D1
:10307000FC220020D07A011000230EE09A1D815C12
:10308000084AD1541A000832815C074AD1541A0008
:103090000A32815C054AD1540133012BEEDD002355
:1030A000C36370472C180020401C0020FC22002025
:1030B00070B5061C081C05F017FB00220B4B03F033
:1030C00076FE04000D00301C05F00EFB22002B00E4
:1030D00003F064FE064A074B03F087FE0022064B0E
:1030E00003F065FE03F07AFF70BDC04600004E405D
:1030F0004AD8124DFB2109400080664030B585B0AA
:103100000400002303E0E17C1F4AD1540133012B6A
:10311000F9DD002303E0617D1C4AD1540133062B05
:10312000F9DD0023022B04DCE17F194AD15401337D
:10313000F8E7002304E02222A15C164AD1540133AF
:10314000062BF8DD144D03AA29000F4809F0ECF90D
:1031500002AA29000D4809F0E7F901AA29000C4844
:1031600009F0E2F96A4629000A4809F0DDF90299F6
:103170000398FFF79DFFE06400990198FFF798FF1F
:10318000206505B030BDC046B0110020B41100204C
:10319000BC110020C0110020D47A011070B50500C8
:1031A000006D05F0A1FA134A134B03F0F7FD134A23
:1031B000134B03F01AFE134A134B03F0EFFD03F019
:1031C000A5FE0400E86C05F08FFA104A104B03F0DE
:1031D000DCFD104A104B03F008FE104A104B03F0C0
:1031E000DDFD03F093FE01B220B21F230522FFF79D
:1031F000C5F870BD0586AC6EF51E5340BEF5C355CF
:10320000F92FC5406BF8B552DF655D4085268925ED
:10321000E538454031F0B8D9400ACD40A74BD2F14E
:10322000B3D4634030B585B0040046214620FFF793
:1032300053FA2048FFF764FA0220FFF757FA1E48B6
:10324000FFF740FAE36B002B2CD0FC23DB000A22B3
:103250004B219620FFF792F878212D20FFF73CFABA
:10326000144D2800FFF74CFA0220FFF73FFA1348ED
:10327000FFF728FAC8213C20FFF72EFA002128008A
:10328000FFF748FA0320FFF731FA636C226CA16C58
:1032900000910B4902A803F0AFFA02A8FFF712FA57
:1032A00005B030BDF8231B020A224B219620FFF700
:1032B00065F8D1E7FFFF0000D87A0110E07A01102D
:1032C000F07A011010B58300084A944663441C68E4
:1032D00040226240C02414408022520113431C60EB
:1032E000C000034B9C466044416010BD04C00140D7
:1032F00000400140C000074B9C466044090203683F
:103300005940C0239B00194080235B011843016092
:103310007047C0460440014070B50400D0231B062E
:103320001D68AA000C4BD358002B0AD0002803D0EC
:10333000AD00094BEC5070BD08490D2000F01EFB9C
:10334000F6E70028F7D0AD00034BE8500022034910
:103350000D2000F0FBF9EEE76C170020ED330010B4
:10336000072303409B00C00899403C308000014B7C
:10337000C150704700400140F8B507000C0016002E
:103380001D00FFF7EDFFFB089B00ED1807203840FC
:1033900080008440002E04D080239B011D432C60BC
:1033A000F8BDC0239B011D432C60F9E710B5D02365
:1033B0001B061B68002B03D0024BFFF7DDFF10BD7F
:1033C000014BFAE7304101400041014070B5140063
:1033D0001D00FFF7EBFF2800FFF79EFF002C00D138
:1033E00070BD01210D2000F05DF9F9E7F0B5D6467A
:1033F0004F464646C0B5D0231B061F68BA001D4B7A
:10340000D3589846002F03D01B4B9946002623E043
:103410001A4B9946FAE724090135002C1BD03300DA
:103420000833AB4217D90F231A0022409246234299
:10343000F1D0BB00124A9A580123AB401342EAD1A3
:1034400051462800FFF78CFF4346002BE3D051463E
:103450002800C047DFE708361D2E06D8F3080833DA
:103460009B004A469C583500D7E7E0BCBA46B146B7
:10347000A846F0BD6C1700203041014000410140DA
:10348000E420002010B501238340D022120693626D
:1034900093610521FFF716FF10BD0000EFF31080C8
:1034A00072B6034B1B68002BFBD0BFF35F8F7047D6
:1034B0002C0100D0BFF35F8F024B00221A6080F313
:1034C000108870472C0100D0F8B506000C001500DC
:1034D000FFF7E4FFE308F718F15C0722224001231D
:1034E00093400B4205D1DBB20B433B70FFF7E2FF89
:1034F000F8BD2100280001F0A5FEF0B583B006005C
:10350000019114001F00FFF7C9FF00E00134BC4225
:103510000CD8E308F518F35C0721214001228A400A
:103520001A42F3D1D2B21A432A7001E00124644254
:10353000FFF7C0FF002C02DB200003B0F0BD019BB1
:10354000002BF9D0089801F07DFE0000034B1B68AA
:1035500002201840431E9841C0B2704700C0064088
:10356000002307E0054A9A189200BFF35F8F0021FD
:10357000116001331F2BF5D97047C046400000345D
:10358000054A1078431CDBB21370172B02D91300C5
:1035900010221A707047C046AC05002000B583B0F9
:1035A0000100044B00931F2318220348FFF7A5FFD7
:1035B00003B000BDFC7A011074170020074B9B6814
:1035C000103080001950BFF35F8FBFF35F8F044B43
:1035D0000021196082F310887047C04600ED00E0BA
:1035E000240100D010B5091A081F0A4B9C466144FB
:1035F000094A914208D8C30706D440104005400D3F
:10360000064B184380B210BD054B064A9921064867
:1036100001F07EFDFC070000FE0F000000E0FFFF50
:10362000187B0110907D0110487B011010B5091A1C
:1036300004394C08090B08D14905490D064A1143C4
:103640000180064B2343438010BD054B054AA12151
:10365000054801F05DFDC04600F0FFFF00F8FFFFE8
:10366000A07B0110647D0110487B01100123834081
:10367000034A10681840431E9841C0B27047C046C4
:1036800000E100E0002904D0034B1860034B1860F0
:103690007047034B1860FBE780E200E000E100E0C8
:1036A00080E100E010B5012383401800FFF7EAFF36
:1036B00010BD000001238340014A13607047C046DB
:1036C00000E200E0024B9B6810308000C058704759
:1036D00000ED00E010B5FFF7F5FF002805D0054B21
:1036E000C01A2F2803D8012010BD0020FCE70020BD
:1036F000FAE7C046B005002070B504000D00EFF3F6
:10370000108672B60C4B1B68002BFBD0BFF35F8F8B
:103710002000FFF7D7FF094B984201D0A84205D1FE
:10372000320029002000FFF749FF70BD044B054A15
:103730007C21054801F0ECFC240100D0CD010010F3
:10374000B07B0110C47D0110487B0110F0B5DE464E
:1037500057464E464546E0B589B081460191150071
:10376000EFF3108A72B6744B1B68002BFBD0BFF3CB
:103770005F8F724B0027DF57002F40DB7C00E4197E
:10378000A4006F4824180622A2566C4B1A706D4B89
:103790009A684B4610339B00D35898461E001B1A5C
:1037A0002F2B38D9684B98452FD105AE674B338006
:1037B0007B009B46D8198000614B984640440230FC
:1037C0006349FFF70FFF7080624BB380FF23B37133
:1037D000F571019B07935F44BF0047440ECE0EC7AF
:1037E00001231C43A046524641464846FFF7E6FEE9
:1037F00009B0F0BCBB46B246A946A046F0BD564B48
:10380000564ACD21564801F083FC564B534AD421E9
:10381000534801F07DFCC04340440C2103F072F892
:10382000002912D101239E43B34633000026DA79E2
:10383000AA4211D90621595600290CDB4A00521818
:1038400092001E003E4B9B18F1E7474B434AE02194
:10385000434801F05DFC1E00002E3BD005AB434AFF
:103860001A80813A5A800623F3560293002B18DA05
:10387000BD20000205AB9B469880029A9A71DD71CB
:10388000019A0792301D2100FFF7ACFEB080B7719E
:103890007B00DB199B002A4FFF185B4607CB07C74D
:1038A000A1E77800C0198000254BC0180430321DF4
:1038B000B388D90A1C2907D15B0559150231490083
:1038C0005118FFF78FFED5E7294B2A4AA721244834
:1038D00001F01EFC05AE1D4B33807B000293D8190E
:1038E0008000174A9046020042440392901C1849F7
:1038F000FFF778FE7080039A101D5946FFF772FE9D
:10390000B0801D4B5A464146521A524153431B0D3B
:10391000B371F571019A0792029B9C466744BF0000
:1039200047440ECE0EC7114B5A461380813B53803D
:1039300001231C43A04656E7240100D04C2300205D
:10394000B005002000ED00E0CD01001000A1FFFF58
:10395000E005002000BDFFFFE87B0110AC7D0110F9
:10396000487B0110107C0110387C011001480000D8
:10397000AC7C01109C7D0110AAAA0000F0B5CE46D7
:10398000474680B583B006000D00EFF3108872B68D
:10399000564B1B68002BFBD0BFF35F8F544B9A68CC
:1039A00034001034A300D758524B9F4207D0AF4287
:1039B00000D199E00197504BFB1A2F2B09D94246B1
:1039C00039003000FFF7FAFD03B0C0BCB946B0467D
:1039D000F0BD3000FFF74AFE814600213000FFF7BE
:1039E00061FEBFF35F8FFCF73EFC002801D08442EC
:1039F00011D10123019C9C430022A368AB4212D049
:103A00000622A256002A0DDB53009B189B002200C1
:103A1000394CE418F1E72C21384B394AFF31394849
:103A200001F076FB2200AB4257D106256557002DE9
:103A300039DB6B005B199A002F4B9B189A68A260C8
:103A4000DA79E27106229A56A2719B795BB2002B59
:103A500010DABD200002A0806B005B199B00264A93
:103A6000D318294A11789971157049463000FFF72B
:103A700019FEA4E7201D6B005B199B001E4A9B18D2
:103A80001A1D9B88D90A1C2907D15B055B150233D7
:103A900059005118FFF7A6FDDDE71C4B1C4AA72172
:103AA000184801F035FB002812D1002A0ED0FF2360
:103AB0009371184B9380144A1378A371164B0E49D7
:103AC000641A644163431B0D1370CEE7094FF2E79C
:103AD000201D1249FFF7AAFDC7E76021104B084AD5
:103AE000FF31084801F014FB024F68E7240100D0C1
:103AF00000ED00E0CD010010B0050020C47C0110F5
:103B00007C7D0110487B01104C230020AC7C01100F
:103B10009C7D011000BDFFFFAAAA0000EA0500205D
:103B2000E87C011070B50400012606432D4BF31A02
:103B30002F2B28D8FCF797FB00282BD0EFF3108C05
:103B400072B6294B1B68002BFBD0BFF35F8F274D4C
:103B500022002449521A524155432D0D6DB2244B77
:103B60009B6880001B58B3421BD00022032A32D826
:103B700053009B189B001B49CB189B795BB2AB424F
:103B80001FD00132F2E7C2211A4B1B4A49001B48E1
:103B900001F0BEFA88211A4B174AFF31174801F08D
:103BA000B7FA134B9B68174A1A50174B1A78A27131
:103BB0001D70BFF35F8F0C4B00221A608CF31088CE
:103BC00070BD08005300991889004118FF268E71B6
:103BD0000E4A8A80E9E7CC210D4B074A4900074885
:103BE00001F096FAB0050020240100D0AAAA000036
:103BF00000ED00E0F07C0110487D0110487B0110D1
:103C0000187D0110CD0100104C23002000BDFFFFE6
:103C1000247D01100022044B02E0044902C301325A
:103C2000072AFAD97047C04600E400E0808080800F
:103C300000B583B00100D0231B061B680648C018DE
:103C4000064B009305230022FFF757FC002801DBF9
:103C50001F23181A03B000BD302300202C7D011053
:103C6000024B9C466144890001607047400000346B
:103C700010B50C00CB68834207D108000B69984748
:103C8000002809D02068616810BD9621054B064ABE
:103C90004900064801F03CFA0023E36000200021BF
:103CA000F2E7C046E07D0110EC800110F47D0110C8
:103CB00070B505000C00080000F01AFE200000F0AE
:103CC00023FF0849200000F063FEFFF759FC064B74
:103CD0009C466044800068602C75A400034BE5504E
:103CE00070BDC046F53F001040000034D01F0020DA
:103CF0000A4B1A68EFF3108172B61368002BFCD0E0
:103D0000BFF35F8F054B1B68BFF35F8F00221A6004
:103D100081F3108840BF002000217047F822002066
:103D200010B5002922D003681B7B99421ED8174B7F
:103D30009C466144090183689C4661440C6849685B
:103D4000002A19D003681B7B9A4215D883680F4854
:103D50008446624412019A181068536802000120D8
:103D60008B4201D80ED00020C0B210BD084B094ACA
:103D70003B21094801F0CCF9054B064A3B21064896
:103D800001F0C6F9A242EFD8EDE7C046FFFFFF0FF2
:103D9000447E011054810110F47D011010B50029FA
:103DA0001ED0037B99421BD84B005B18033B046871
:103DB000A4466344002919D0002A1DD0914221D085
:103DC000002A25D0047BA24222D804685000801823
:103DD000033820188170197800291FD11A7010BD7E
:103DE000104B114A6821114801F092F9104B114A09
:103DF0006F310E4801F08CF90F4B0E4A70210B48C1
:103E000001F086F90D4B0B4A7121084801F080F949
:103E1000044B054A6821054801F07AF941701A708F
:103E2000DDE7C046787E0110C0810110947E01104C
:103E3000F87E01109C810110047F0110107F011099
:103E400070B506000D001400002914D0002A14D00B
:103E5000806873689847002806D022002900300047
:103E6000FFF79CFF280007E02A0021003000FFF741
:103E700095FF200000E0100070BD0800FCE7000086
:103E8000F0B583B00500009201930AAB1C780BAB30
:103E90001F78002C26D003685A7B944207D1012357
:103EA000002B19D1002C3BD1200003B0F0BD002C19
:103EB0000CD01A7B944209D81A6863001B19033B83
:103EC000D3189B78002BEBD00123E9E73E4B3F4A08
:103ED00068213F4801F01CF93E4B3F4A65213F48AD
:103EE00001F016F903689C7B002CDBD012D01A7B02
:103EF00094420FD862001219033A19688C46624442
:103F000051789973002900D1D973002393705370AD
:103F10001370C7E72C4B2D4A68212D4801F0F8F8A3
:103F2000002C3AD02B681B7B9C4236D82C4BE318D4
:103F30001B01AA6894466344009A1A60019A5A6069
:103F4000089A9A60099ADA602E68002C2BD030D03B
:103F5000337B9C422DD863001B19033B3268944687
:103F6000634400229A705A701A70717B22003000EC
:103F7000FFF766FF7073844200D095E7287D009AB2
:103F8000019B00F04DFD061E01D0002F17D00C9BA9
:103F9000002B00D188E71E7086E7124B124A3B21A6
:103FA0000E4801F0B5F8114B114AA521084801F05F
:103FB000AFF8054B054A6821054801F0A9F82868C3
:103FC000210000F055FFE2E7787E0110C08101106A
:103FD000947E0110287F0110CC810110F47D011026
:103FE000FFFFFF0F447E011054810110F07D01108E
:103FF000B0810110F0B5DE4657464E464546E0B565
:104000008BB00990002308938200B24BD65837003A
:1040100032E0B14BB14A3F21B14801F079F8B14BE0
:10402000B14A3B21B14801F073F8B14BB14A8C2140
:10403000AE4801F06DF8B04BAE4A9021AB4801F0AC
:1040400067F8A84BAD4A4021A84801F061F82A68FA
:104050006B68099800F0E4FC00239A4698467B6858
:10406000BFF35F8F00221A6086F310884346002B4F
:1040700051D1002800D126E100F046FC02000B1EC1
:10408000C7DB00200021069007917868EFF31086C7
:1040900072B601680029FCD0BFF35F8F396888468B
:1040A0004C7B002C32D0BAD0097B8C42B7D89449D3
:1040B00065182D01B9688C46654428686968801ABE
:1040C00099410029C3DC01D10028C0D1002140461C
:1040D00000F0C4FEA042A8D12A686B68069207933C
:1040E000AB689846EB689A464346002BA3D0002C59
:1040F000A7D03B681B7B9C42A3D8631EFA68D35CA5
:1041000008931B02184338610020A8E700239A4651
:1041100098460020A3E7089B1B022343994651467B
:104120001800C04705000E007A68EFF3108B72B6D6
:10413000136859424B41D9B2002BF9D1BFF35F8FBD
:10414000002E26DB002E52DD3B69002B53D04B4561
:1041500072D100F0D9FB02000B1E73DB01001800C6
:1041600052197341984202D804D1914202D90122D6
:104170005242D317002B6BDB0021049101310391D4
:10418000029451460191414600913800FFF778FEB4
:1041900049E03B69002BD5D04B451CD1069A079BC3
:1041A00010001900521BB341994202D804D1904229
:1041B00002D901225242D317002B12DB00210491B5
:1041C000013103910294514601914146009138001A
:1041D000FFF756FE27E04B4B464A9F21434800F02D
:1041E00097FF3D4B3D4A3F213D4800F091FF002E97
:1041F00001D1002DA8D13A68002C45D0537B9C42B8
:104200002CD1012100293FD1D37B002B42D1D47383
:10421000002C52D03B681B7B9C424ED8FA68013C74
:10422000135D0133135500233B617A68BFF35F8F41
:1042300013608BF310881FE7324B2E4AA2212B48C4
:1042400000F066FF244B254A3F21254800F060FF1F
:10425000214B224A3F21224800F05AFF002C0DD06A
:10426000137B9C420AD863001B19033B10688446E9
:1042700063449B78002BC5D00121C3E7224B234A1E
:104280006821234800F044FF224B234AF6212048AE
:1042900000F03EFF002B0AD0117B8B4207D859005B
:1042A000CB18033B11688C4663445C70AFE7164B38
:1042B000164A6821164800F02BFF0A4B0F4A40218E
:1042C0000A4800F025FF0BB0F0BCBB46B246A94639
:1042D000A046F0BDD01F0020507F011020810110AA
:1042E0006C7F0110447E011054810110F47D011097
:1042F000CC7F011038810110E47F0110788101101A
:10430000FFFFFF0FF07F0110787E0110C0810110C8
:10431000947E01102C8001108C81011010B50A4B85
:104320005B68002B04D00A210848FFF799FC10BDF8
:10433000054C2300064A1021206800F0AFFC032141
:104340002000FFF7B5FCEEE7F8050020F82200207A
:10435000213D001010B5064B5B68002B01D00448CE
:1043600010BD044B044A5C21044800F0D1FEC04655
:10437000F80500205080011060810110F47D0110CB
:10438000F0B5DE4657464E464546E0B58BB0804612
:1043900016001F00149B9A46159B994616AB1B7876
:1043A0009B461F2302AA9446634400221A7032E0FF
:1043B000002809D042461268127B904204D8421E5F
:1043C0004146C9688A5C48E0434B444A402144481E
:1043D00000F09EFE0798002B75D05B46002B72D034
:1043E0004946D04704000D0003000B4300D171E0A3
:1043F000002946DB00F088FA06000F1E55DB36194F
:104400006F41B94202D804D1B04202D901267642A6
:10441000F717002F4FDB43465A68EFF3108472B64C
:10442000136859424B41D9B20791002BF8D1BFF321
:104430005F8F1F3302AA94466344049300230393BF
:1044400002934B4601935346009332003B00404693
:10445000FFF716FD031EABD1020041464968BFF3CA
:104460005F8F00250D6084F31088002B29D01F2357
:1044700002A98C4663441B78002BABD11202104377
:10448000A9E732003B00361BAF41BB4202D804D142
:10449000B24202D901267642F717002FBBDA114B40
:1044A000114A3F21114800F033FE0E4B0E4A3F21C6
:1044B0000E4800F02DFE0B4B0B4A3F210B4800F03D
:1044C00027FE012040420BB0F0BCBB46B246A946D5
:1044D000A046F0BD0798F6E7447E011078810110F0
:1044E000F47D0110507F0110208101106C7F0110BC
:1044F000F8B504004268EFF3108572B613685842AD
:104500004341D8B2002BF9D1BFF35F8FCBB2226801
:10451000567BB3421BD10120002848D02069884235
:104520002BD0090AC9B2002B2ED02068007B834211
:104530002AD8581EE668305C88422BD00020636879
:10454000BFF35F8F00221A6085F31088F8BD002B3F
:104550000DD0167BB3420AD85E00F618033E1768EA
:10456000BC466644B678002ED6D00120D4E7134B63
:10457000134A6821134800F0CBFD8521124B134AE2
:104580004900134800F0C4FD124B134A4021104863
:1045900000F0BEFD1900100000F06AFC0028CED12A
:1045A00012210E4B094AFF31094800F0B1FD236981
:1045B0008B42C4D100232361C1E7C046787E01103D
:1045C000C0810110947E01107480011008810110D7
:1045D000F47D0110447E0110788101109880011053
:1045E000F0B585B00700100019000C9E13000B43B6
:1045F00001D101200021B7600A9B336130607160F6
:104600000B9B7361CA1713005040040051400D000A
:10461000A41A9D4100F078F902000B1E1ADB01007C
:10462000180012196B41984202D804D1914202D964
:1046300001225242D317002B12DB01210291019675
:104640000A4900913800FFF79BFEF060C043C00F9D
:1046500005B0F0BD064B074A3F21074800F058FD62
:10466000034B044A3F21044800F052FD713C001006
:10467000507F0110208101106C7F0110F0B587B0D0
:1046800006000F00FBF7EFFD00281FD1062464424F
:10469000E517A4197D41BD4202D803D1B44201D926
:1046A00000240025002D14DB0494059500F02CF95E
:1046B00002000B1E13DBA41A9D41002D17DC14D041
:1046C0003000390000F02CF907B0F0BD234800F0AD
:1046D000B9FD234B234A3F21234800F019FD204B0D
:1046E000204A3F21204800F013FD002CE8D0FFF7BE
:1046F00031FE0023029301931C4B0093049A059B07
:10470000FFF73EFE002818DADAE7002300E0002376
:10471000002BD5D1164B1A68EFF3108172B61368CF
:10472000002BFCD0BFF35F8F114B1B68BFF35F8F73
:1047300000221A6081F3108820BF0499059A0D4B5E
:104740005B6A9A42E3D80B48806A884203D29A4255
:10475000DBD00123DCE70123DAE7C0469C800110AF
:10476000507F0110208101106C7F0110F13C00107E
:10477000F822002000400540F8B504000D0000F0CC
:10478000C3F802000B1E10DB2000290080185941DD
:104790008B4202D804D1824202D901204042C11783
:1047A000002908DBFFF76AFFF8BD064B064A3F21E8
:1047B000064800F0ADFC034B034A3F21034800F0DC
:1047C000A7FCC046507F0110208101106C7F0110B2
:1047D00010B5FA2292000023002103F0E7FEFFF754
:1047E000CBFF10BD70B584B006000C00FFF7B2FD22
:1047F000002302930193194B009332002300FFF72B
:10480000BFFD051E11DD20BFFFF7A4FD2900FFF746
:104810006FFE134B5B6A9C421BD8114A926AB242EC
:104820001AD29C4213D0012014E00D4B5B6A9C42CB
:1048300009D80B4A926AB24207D29C4201D00120A9
:1048400008E0002006E0002004E0012002E0002053
:1048500000E0002004B070BD0120FBE7F13C001037
:104860000040054070B5EFF305833F201840103835
:10487000EFF3108C72B6194B1B68002BFBD0BFF303
:104880005F8F012319008140154A5163154A127840
:104890001400C440234214D0114B5C6A8300124DB3
:1048A0005B599C4206D38300104C1B598A430D4927
:1048B0000A7007E00A4A031D9B009958995000238B
:1048C00000E00023BFF35F8F044A002111608CF3E6
:1048D0001088002B00D0984770BDC046280100D03A
:1048E0000040054050230020082300205C160020D3
:1048F00010B50100024A0348FEF7E6FD10BDC046B0
:10490000E48101104B230020044B5B6A034A906A48
:104910001900536A9942F9D17047C04600400540DA
:10492000084B5B6A01E0074B5B6A8B42FBD301E0FB
:10493000044B5B6A8B4203D1024B9B6A8342F7D3E1
:104940007047C0460040054070B504000D00FFF7F9
:10495000DBFF02000B0020002900801859418B4228
:1049600002D804D1824202D901204042C117002955
:1049700002DBFFF7D5FF70BD024B034A3F2103481E
:1049800000F0C6FB507F0110A48201106C7F011063
:1049900070B504000D00EFF3108672B61B4B1B6858
:1049A000002BFBD0BFF35F8F002D1CD02000FEF743
:1049B00089FE174B83420BD019002000FEF79CFEA6
:1049C00001212000FEF76EFE0123A340114A13606F
:1049D000A400114BE550BFF35F8F0C4B00221A600F
:1049E00086F3108870BDA2000B4B0021D15001222C
:1049F000A2400A490B7893430B7005492000FEF74B
:104A0000BDFF00212000FEF74DFEE4E7280100D0A5
:104A100065480010386005405C16002050230020D7
:104A2000F0B5DE4600B584B00400150001921E000A
:104A30000293FFF769FF03958E4202D84ED185425B
:104A40004CD9EFF3108B72B6274B1B68002BFBD0B1
:104A5000BFF35F8F254A17780125A540EBB23B4392
:104A60001370234B5D63221D92000199D150A20067
:104A70002049029850501B6A2B4212D11C4B1B6CD0
:104A80002B4208D00020BFF35F8F174B00221A6023
:104A90008BF3108823E0184B184AC121184800F006
:104AA00037FBFFF731FF8E4214D802D1039B8342BC
:104AB00010D80E4B1B78BB420ED00D4B1D625D63B0
:104AC0001F2004400123A3400E4A1360074B1F70B0
:104AD0001E38D8E70020D6E70120D4E7012004B033
:104AE00080BCBB46F0BDC046280100D0502300204A
:104AF0000040054008230020088201108882011030
:104B00002C82011080E200E0EFF3108C72B60B4BA8
:104B10001B68002BFBD0BFF35F8F01238340084A43
:104B2000136208490A789A430A70BFF35F8F034BF8
:104B300000221A608CF310887047C046280100D00C
:104B4000004005405023002010B500291ED0037BF3
:104B500099421BD84B005B18033B0468A44663448E
:104B6000002919D0002A1DD0914221D0002A25D039
:104B7000047BA24222D80468500080180338201811
:104B80008170197800291FD11A7010BD104B114A7D
:104B90006821114800F0BCFA104B114A6F310E48E1
:104BA00000F0B6FA0F4B0E4A70210B4800F0B0FA35
:104BB0000D4B0B4A7121084800F0AAFA044B054A34
:104BC0006821054800F0A4FA41701A70DDE7C0467C
:104BD000787E0110C4830110947E0110F87E0110CC
:104BE000B0830110047F0110107F011070B5060022
:104BF0000D001400002914D0002A14D080687368B6
:104C00009847002806D0220029003000FFF79CFFBB
:104C1000280007E02A0021003000FFF795FF200060
:104C200000E0100070BD0800FCE7000010B5002394
:104C3000437301338373037BC3730123027B9A4263
:104C400014D9002B0CD0027B934209D85A00D218F9
:104C5000033A01688C4662440133DBB25370EDE7DE
:104C60000B4B0C4A68210C4800F052FA002A09D07C
:104C7000924207D8016853009A18033A8A18002311
:104C8000537010BD024B034A6821034800F040FAFC
:104C9000787E0110C4830110947E011010B5017359
:104CA00042608360FFF7C2FF10BD000070B50400D2
:104CB000081E00D170BD002934D0237B994231D821
:104CC0004B005B18033B2268944663445A78002AE1
:104CD000F0D02DD0237B9A422AD853009B18033B57
:104CE00021688C4663445D7800215970002825D0E6
:104CF000237B984222D843001B18033B21688C4633
:104D000063440021597001002000FFF76FFF060087
:104D100029002000FFF7CAFF020031002000FFF742
:104D200065FFC7E7084B094A6821094800F0F0F918
:104D3000054B064A6821064800F0EAF9024B034A8F
:104D40006821034800F0E4F9787E0110C483011063
:104D5000947E011070B505000C001600002928D0C3
:104D60002DD0037B99422AD84B005B18033B026885
:104D7000944663445A78002A27D19A78002A2AD187
:104D80001978FFF793FF0300002E03D0EA7B002A77
:104D900027D1EC73002B37D1002C49D02B7B9C42C0
:104DA00046D82B6861000C19033C1C190023637062
:104DB00070BD224B224A3821224800F0A9F9224B2B
:104DC000224A6821224800F0A3F9224B1C4A3A21CA
:104DD0001C4800F09DF9204B194A3B21194800F06E
:104DE00097F9002A0AD0297B8A4207D851008A18ED
:104DF000033A29688C4662445470CAE7124B134A3E
:104E00006821134800F084F9002B0BD02A7B9342D1
:104E100008D843001B18033B2A68944663440022C9
:104E20009A70B9E7084B094A6821094800F070F9FF
:104E3000054B064A6821064800F06AF9BC82011059
:104E40009C830110C4820110787E0110C48301107C
:104E5000947E0110188301104083011070B5040086
:104E60000A00457B2900FFF775FF6073280070BDBD
:104E700070B50400002967D0437B8B420ED0002917
:104E800011D0037B99420ED84B005B18033B02689C
:104E9000D0188378002B0CD1002056E00121FFF7B9
:104EA000DDFF012051E0294B294A6821294800F003
:104EB0002FF9002B20D0227B93421DD85A00D31803
:104EC000033B2268D2182568EB5C8B421AD0002B7A
:104ED0001BD0227B934218D85A00D318033B226878
:104EE000D21853788B4216D0002BF0D11A4B1B4AA4
:104EF00067211B4800F00CF9144B154A682115482E
:104F000000F006F94378137007E0104B104A68214F
:104F1000104800F0FDF8437853700023837043700D
:104F200001222000FFF716FF0200617B814205D0BD
:104F30002000FFF75BFE6073012006E0094B074A83
:104F40006D21074800F0E4F8002070BD787E011064
:104F5000C4830110947E0110247D0110848301100C
:104F6000C48201106483011010B50400FEF708FB31
:104F700001002000FEF774FEFF232371BFF35F8F53
:104F800010BD10B50400FEF7FBFA01002000FEF78B
:104F900067FEFF23237100236371BFF35F8F10BD92
:104FA000034B9C46614489000160BFF35F8F7047EB
:104FB0004000003410B504000120FEF7EFFA0100B4
:104FC0002000FFF7EDFF10BD70B504000D000620B6
:104FD00000F052FAC000290001F094FCC60908D084
:104FE0000E4B9E4217D87F231840013035004608EB
:104FF00000E001256562A6622C3480208001044314
:1050000000232360062000F037FA8000A9018919E7
:1050100001F078FC70BD0026014DEBE7FEFF0000BB
:10502000FFFF0000002909D00A22064B9C4660447D
:10503000434258414000044BC25270478022520004
:10504000F3E7C0460080FCBF1823002070B50500C0
:105050000C00062000F010FA002829D0164B9D42C3
:1050600027D08022D203154B1A60154B1A60154BBE
:105070009B6811009943FAD100212800FFF7D2FF65
:1050800021002800FFF7A0FF2C002C34E96A6022E1
:105090004A406E21114080225201224311600A4B86
:1050A0002B6380239B01234310221A600323AB64EC
:1050B00070BD80221204D6E70080034000E000406B
:1050C00000F0004000C000400103000000BEFDE70A
:1050D00003000A4A1268002A08D0084A1068C31858
:1050E000074A9A4206D3054A13607047034A0549A6
:1050F0001160F2E701204042F7E7C046281800207F
:10510000000004205423002010B5FFF7DFFF00004B
:1051100010B582B00C001900002A0CD0084B002AF0
:105120000BD00192009323000200064803F036FDE5
:105130000120FFF7CBFF044BF1E7034AF1E7C0463C
:10514000B4840110C4840110BC0D011070B52B4B48
:105150002B4A1A602B4B2C4A1A602C4B9A682A4B0C
:105160009343FAD12A4C01E008CC9847294B9C4242
:10517000FAD300F001F9234B274A1A60234B9B68AE
:10518000DB43DB01FAD1254B40229A675A671A6745
:10519000DA66234C09E0234B234A83212348FFF797
:1051A000B7FF2000FFF7E0FE0834214B9C4209D2F4
:1051B0002368002BF5D0012BEDD12000FFF7E1FE95
:1051C0000834F2E71B4CA1681B4DC022280003F0F5
:1051D000A1FBA560FBF747F8002800D000BEFEF752
:1051E000BFF9FEF717FDFFF799F8144C01E008CC62
:1051F0009847134B9C42FAD370BDC04600E0004074
:10520000BFCDFBFE00F00040FE7F3C0000C0004030
:105210004010002050100020FFFFFF0100F001406F
:1052200030100020F48401108085011014850110D5
:105230004010002000ED00E0000000205010002091
:105240005C1000200FB400B583B0084803F074FC74
:10525000049B002B07D005A90191180003F07CFCEA
:10526000034803F069FC0120FFF730FF708501104F
:10527000800D0110F8B5DE4657464E464546E0B56E
:1052800005000F0092460A9A93424ED31A0E914699
:105290001E020A9A00233000494601F075FB804641
:1052A0006C006419A4002F4B9C46644463688342DD
:1052B00000D260602B1FDBB29B46012B3BD9C02381
:1052C0009B012343802212011A60AB00264A9958A1
:1052D000002905D0506901F015FB01300138FDD1DE
:1052E00053465A0123685A40E0231A4080235B0149
:1052F00023431A605A46012A28D980239B0123435D
:10530000802212011A604346636042460023300047
:10531000494601F039FBAD00134B58510120F0BC58
:10532000BB46B246A946A046F8BD104B104A2D21F7
:105330001048FFF7EDFE012FC1D1C0239B0123438D
:1053400003221A60A368DB07FCD5C9E7216879400E
:1053500003220A401A60A2680123BB401342FAD01C
:10536000CBE7C046008000407817002090850110F0
:1053700000860110A485011030B583B00C2000F028
:1053800021F9FEF7E3F800280DD0002304E099008E
:105390002D4A2E4888500133092BF8D92A4B2C4A24
:1053A0005A6203B030BD2B4B00229A6700F07CF9A3
:1053B000294B01221A60274B5B6C012BFBD1274B39
:1053C00003221A60234B9B6B012BFBD1013300930B
:1053D0000433234A0121234800F054F805230093A5
:1053E000214A0121214800F04DF8214B0093002271
:1053F00002210420FFF73EFF1E4D00952B000022E6
:1054000001210520FFF736FF104C009423000022F5
:1054100000210720FFF72EFF009423000022002127
:105420000820FFF727FF0A4B0093230000220021EA
:105430000920FFF71FFF00952B0000220021062006
:10544000FFF718FFADE7C04678170020006CDC02BC
:105450001BB70000008000403CB0004030B000406E
:10546000002F685900800240008C864700C002402F
:10547000001BB700405973078000014BC0587047AC
:1054800078170020F0B5C64600B504000F0090461E
:105490001D000C2001F036FA06003D4A42443D4B07
:1054A0009A4243D843011B1A9901C91AC900091825
:1054B0008901404601F026FA0200103A98235B0069
:1054C0009A4239D86B1E062B3CD8069B013B062B13
:1054D00038D8069B9D423BD343461A09B2423DD37E
:1054E0002D04069B1E0335432368002B3CDB2A4B0F
:1054F0009C424AD080225201284B1A60284B1A60E5
:10550000284B9B6811009943FAD12760A060231DA6
:10551000C02292011A43212313602368002BFCDA76
:10552000E5600823136080BCB846F0BD1E4B1F4ADF
:1055300011211F48FFF7ECFD1E4B1C4A19211C4886
:10554000FFF7E6FD1C4B194A1C211948FFF7E0FD47
:105550001A4B164A22211648FFF7DAFD184B134A58
:1055600025211348FFF7D4FD22683F231340BB4297
:10557000BDD1A3681B051B0D8342B8D1E368EE22A1
:10558000D2021340AB42B2D1CDE780229201B3E701
:1055900080E84BD380F8A93200C0024000E0004010
:1055A00000F0004000C00040108601106487011028
:1055B00070860110C8860110E48601103087011042
:1055C0004887011080239B000343014AD362704740
:1055D00000800540024B1A68024B5A607047C04673
:1055E0003C1C00200080054010B50200164B8020B6
:1055F000C0051860154B1648186000290AD0154BD5
:10560000E021C9041960002A09D1124B8022120638
:105610001A6010BD0C4BE021C9041960F3E7530177
:105620009B1A9800801800010B4B186080235B04C4
:10563000984202D3084B094A1A60FFF7CBFF054B8B
:105640008022D2051A60E4E700B00540082001403E
:10565000FCFF010000A005403C1C0020FFFFFF00F4
:1056600010B5030010000C4A8024E4051460002BE0
:105670000DD001221343094A094CD461094C5C4006
:105680001462516293620021FFF7AEFF10BD034B1D
:105690000022DA61F7E7C04600B00540008005400F
:1056A000D3C007B02D3FF84F064BAA2212011A6053
:1056B0002F22DA60044B054A1A60024B5B68002B0C
:1056C000FBDA7047004002400060024000B0FA0080
:1056D0009A4200D288547047704710B5002802D013
:1056E0000B684968984710BD0100002007E083005F
:1056F0001B185B00501C08601078C01830380A680E
:105700001378303BDBB2092BF1D97047F0B5DE4698
:1057100057464E464546E0B583B093461F000C9B66
:105720009A460D9C0E9B99460F9B9B0703D0B8464B
:105730000F00060022E00192A34688464E46B94675
:105740000700B44207D2551C4B4641462020B847BB
:1057500001342A00F5E73D004F465C46019B9B461D
:10576000B1464646B84637002E0007E0013C551CBE
:105770005346185D43463900B0472A00002CF5D146
:1057800035003E0047460F9B9B0707D4100003B02F
:10579000F0BCBB46B246A946A046F0BDB0464E4658
:1057A000B9462F005D46531BB342EFD2541C4B4603
:1057B00041462020B8472200F5E7F0B5CE464746DF
:1057C00080B585B0944698460C9D0D9C0EAB1B7819
:1057D0009946109A119B129EB7071CD4002B0CD02F
:1057E000F7070AD54F46002F02D10C37374204D0B5
:1057F000013B02E030272F550134944201D21F2C87
:10580000F8D9F70707D59C4205D21F2C03D83027BB
:105810002F550134F5E7F70615D5770505D4002C8B
:1058200003D0944224D09C4222D00F9A102A2BD02D
:105830000F9A102A30D00F9A022A35D01F2C02D886
:1058400030222A5501341F2C05D84A46002A31D06F
:105850002D222A5501340396029301940095434664
:105860006246FFF753FF05B0C0BCB946B046F0BD75
:10587000621E012C06D00F9F102F01D01400D4E718
:10588000023CD2E71400D0E7B206D1D41F2CCFD807
:1058900078222A550134D1E7B206CCD51F2CCAD8BC
:1058A00058222A550134C9E71F2CC7D860322A551F
:1058B0000134C3E7720703D52B222A550134CAE706
:1058C0003207C8D520222A550134C4E7F0B5DE4698
:1058D00057464E464546E0B593B081468A46089203
:1058E00009931CAB10CB1B789B461E9D219B9846B1
:1058F000002C03D1102342469A4390468023DB00BC
:1059000046461E4042461A4212D0002C22D00026A3
:105910000EE03033D9B2771C0AAB9955290020002C
:1059200000F0F0FFAC4216D31F2F14D83E00040045
:105930002900200000F0E6FFCBB2092BE9D942464E
:10594000920605D54121C918C9B20A39C9B2E2E7A0
:105950006121F8E7270043460693209B05931F9B90
:10596000049303955B46029301970AAB0093099B4E
:10597000089A51464846FFF720FF13B0F0BCBB46DB
:10598000B246A946A046F0BDF0B5DE4657464E46A3
:105990004546E0B595B0089009910A920B931E9E7A
:1059A0001F9C20AB1B789B46229B9946239D269BE0
:1059B0009A463300234303D1103352469A4392460A
:1059C0008023DB0057461F4052461A4219D033004D
:1059D00023432DD0002714E03033DAB27B1C9846E5
:1059E0000CABDA554A462B003000210000F0CCFF0A
:1059F000A5421FD819D043461F2B1BD84746060087
:105A00000C004A462B003000210000F0BDFFD3B24D
:105A1000092BE1D95246920605D54122D218D2B2BD
:105A20000A3AD2B2DAE76122F8E7B145E3D901E0F8
:105A30000023984653460693259B0593249B049385
:105A40004B4603935B460293434601930CAB009392
:105A50000B9B0A9A09990898FFF7AFFE15B0F0BCA6
:105A6000BB46B246A946A046F0BD0000F0B5DE46F2
:105A700057464E464546E0B591B083468A460C925D
:105A800098461A9C08941B9D099522002B00200023
:105A9000290001F010FA002800D0E5E0012252426E
:105AA000D74B2000290001F001FA002800D0DBE0EC
:105AB00001225242D34B2000290001F0E1F90028D5
:105AC00000D0D1E000220023089D2800099E31006B
:105AD00001F0D6F9002800D0DDE008980999069079
